{
  "contractName": "SimpleStorage",
  "abi": [
    {
      "anonymous": false,
      "inputs": [
        {
          "indexed": false,
          "internalType": "string",
          "name": "_message",
          "type": "string"
        }
      ],
      "name": "StorageSet",
      "type": "event"
    },
    {
      "inputs": [],
      "name": "storedData",
      "outputs": [
        {
          "internalType": "uint256",
          "name": "",
          "type": "uint256"
        }
      ],
      "stateMutability": "view",
      "type": "function"
    },
    {
      "inputs": [
        {
          "internalType": "uint256",
          "name": "x",
          "type": "uint256"
        }
      ],
      "name": "setStore",
      "outputs": [],
      "stateMutability": "nonpayable",
      "type": "function"
    },
    {
      "inputs": [],
      "name": "get",
      "outputs": [
        {
          "internalType": "uint256",
          "name": "retVal",
          "type": "uint256"
        }
      ],
      "stateMutability": "view",
      "type": "function"
    }
  ],
  "bytecode": "0x608060405234801561001057600080fd5b50610167806100206000396000f3fe608060405234801561001057600080fd5b50600436106100415760003560e01c80632a1afcd9146100465780636d4ce63c146100645780637f626f1a14610082575b600080fd5b61004e6100b0565b6040518082815260200191505060405180910390f35b61006c6100b6565b6040518082815260200191505060405180910390f35b6100ae6004803603602081101561009857600080fd5b81019080803590602001909291905050506100bf565b005b60005481565b60008054905090565b806000819055507f60cdc157ca4737a5d39a0e107532616e7bf6946e615228812c7f9bc9f81797a66040518080602001828103825260198152602001807f446174612073746f726564207375636365737366756c6c79210000000000000081525060200191505060405180910390a15056fea264697066735822122007bfe5316e5718a21f7f096b1fffb225c82c62207c591fcc929e952a82b1cf4c64736f6c63430007000033",
  "immutableReferences": {},
  "source": "pragma solidity ^0.7.0;\n\ncontract SimpleStorage {\n    event StorageSet(string _message);\n\n    uint public storedData;\n\n    function setStore(uint x) public {\n        storedData = x;\n\n        emit StorageSet(\"Data stored successfully!\");\n    }\n\n    function get() view public returns (uint retVal) {\n        return storedData;\n    }\n}",
  "sourcePath": "/home/lev/code/blockchain/truffle-svelte-typescript-boilerplate/truffle-svelte-starter/contracts/SimpleStorage.sol",
  "compiler": {
    "name": "solc",
    "version": "0.7.0+commit.9e61f92b.Emscripten.clang"
  },
  "schemaVersion": "3.3.3",
  "updatedAt": "2021-01-10T22:58:06.896Z",
  "devdoc": {
    "kind": "dev",
    "methods": {},
    "version": 1
  },
  "userdoc": {
    "kind": "user",
    "methods": {},
    "version": 1
  }
}